{
  "contractName": "ECTools",
  "abi": [
    {
      "constant": true,
      "inputs": [
        {
          "name": "hash",
          "type": "bytes32"
        },
        {
          "name": "sig",
          "type": "bytes"
        }
      ],
      "name": "recover",
      "outputs": [
        {
          "name": "",
          "type": "address"
        }
      ],
      "payable": false,
      "stateMutability": "view",
      "type": "function"
    },
    {
      "constant": true,
      "inputs": [
        {
          "name": "_msg",
          "type": "bytes32"
        }
      ],
      "name": "toEthereumSignedMessage",
      "outputs": [
        {
          "name": "",
          "type": "bytes32"
        }
      ],
      "payable": false,
      "stateMutability": "view",
      "type": "function"
    },
    {
      "constant": true,
      "inputs": [
        {
          "name": "_msg",
          "type": "bytes32"
        },
        {
          "name": "sig",
          "type": "bytes"
        }
      ],
      "name": "prefixedRecover",
      "outputs": [
        {
          "name": "",
          "type": "address"
        }
      ],
      "payable": false,
      "stateMutability": "view",
      "type": "function"
    }
  ],
  "bytecode": "0x610314610030600b82828239805160001a6073146000811461002057610022565bfe5b5030600052607381538281f300730000000000000000000000000000000000000000301460806040526004361061006d5763ffffffff7c010000000000000000000000000000000000000000000000000000000060003504166319045a258114610072578063380388f1146100ec578063fc960e151461013d575b600080fd5b60408051602060046024803582810135601f81018590048502860185019096528585526100c395833595369560449491939091019190819084018382808284375094975061015a9650505050505050565b6040805173ffffffffffffffffffffffffffffffffffffffff9092168252519081900360200190f35b60408051602060046024803582810135601f81018590048502860185019096528585526100c395833595369560449491939091019190819084018382808284375094975061022f9650505050505050565b61014860043561024f565b60408051918252519081900360200190f35b600080600080845160411415156101745760009350610226565b50505060208201516040830151606084015160001a601b60ff8216101561019957601b015b8060ff16601b141580156101b157508060ff16601c14155b156101bf5760009350610226565b60408051600080825260208083018085528a905260ff8516838501526060830187905260808301869052925160019360a0808501949193601f19840193928390039091019190865af1158015610219573d6000803e3d6000fd5b5050506020604051035193505b50505092915050565b60008061023b8461024f565b9050610247818461015a565b949350505050565b604080518082018252601c8082527f19457468657265756d205369676e6564204d6573736167653a0a333200000000602083019081529251600093839286929182918083835b602083106102b45780518252601f199092019160209182019101610295565b51815160209384036101000a60001901801990921691161790529201938452506040519283900301909120959450505050505600a165627a7a7230582017acc9dbc81e7e115856ededb82fd9f9b0ed31e438fddae0d1d140b00a7f89730029",
  "source": "pragma solidity ^0.4.18;\n\nlibrary ECTools {\n\n  /**\n   * @dev Recover signer address from a message by using his signature\n   * @param hash bytes32 message, the hash is the signed message. What is recovered is the signer address.\n   * @param sig bytes signature\n   */\n  function recover(bytes32 hash, bytes sig) public view returns (address) {\n    bytes32 r;\n    bytes32 s;\n    uint8 v;\n\n    //Check the signature length\n    if (sig.length != 65) {\n      return (address(0));\n    }\n\n    // Divide the signature in r, s and v variables\n    assembly {\n      r := mload(add(sig, 32))\n      s := mload(add(sig, 64))\n      v := byte(0, mload(add(sig, 96)))\n    }\n\n    // Version of signature should be 27 or 28, but 0 and 1 are also possible versions\n    if (v < 27) {\n      v += 27;\n    }\n\n    // If the version is correct return the signer address\n    if (v != 27 && v != 28) {\n      return (address(0));\n    } else {\n      return ecrecover(hash, v, r, s);\n    }\n  }\n\n  function toEthereumSignedMessage(bytes32 _msg) public view returns (bytes32) {\n    bytes memory prefix = \"\\x19Ethereum Signed Message:\\n32\";\n    return keccak256(prefix, _msg);\n  }\n\n  function prefixedRecover(bytes32 _msg, bytes sig) public view returns (address) {\n    bytes32 ethSignedMsg = toEthereumSignedMessage(_msg);\n    return recover(ethSignedMsg, sig);\n  }\n}",
  "sourcePath": "/Users/georgispasov/Downloads/Archive/contracts/ECTools.sol",
  "compiler": {
    "name": "solc",
    "version": "0.4.24+commit.e67f0147.Emscripten.clang"
  },
  "schemaVersion": "0.9.4",
  "updatedAt": "2018-08-30T15:23:48.117Z"
}